{
  "contractName": "MultiSig",
  "abi": [
    {
      "inputs": [
        {
          "internalType": "address[]",
          "name": "_owners",
          "type": "address[]"
        },
        {
          "internalType": "uint256",
          "name": "_minimumApprovalRequired",
          "type": "uint256"
        }
      ],
      "stateMutability": "nonpayable",
      "type": "constructor"
    },
    {
      "inputs": [
        {
          "internalType": "uint256",
          "name": "_amount",
          "type": "uint256"
        },
        {
          "internalType": "address",
          "name": "_to",
          "type": "address"
        }
      ],
      "name": "requestTransaction",
      "outputs": [
        {
          "internalType": "uint256",
          "name": "",
          "type": "uint256"
        }
      ],
      "stateMutability": "nonpayable",
      "type": "function"
    },
    {
      "inputs": [
        {
          "internalType": "uint256",
          "name": "_transactionId",
          "type": "uint256"
        }
      ],
      "name": "approveTransaction",
      "outputs": [
        {
          "internalType": "uint256",
          "name": "",
          "type": "uint256"
        }
      ],
      "stateMutability": "nonpayable",
      "type": "function"
    },
    {
      "inputs": [
        {
          "internalType": "uint256",
          "name": "_transactionId",
          "type": "uint256"
        }
      ],
      "name": "checkTransactionApproalCount",
      "outputs": [
        {
          "internalType": "uint256",
          "name": "",
          "type": "uint256"
        }
      ],
      "stateMutability": "view",
      "type": "function"
    },
    {
      "inputs": [
        {
          "internalType": "uint256",
          "name": "_transactionId",
          "type": "uint256"
        }
      ],
      "name": "checkTransactionStatus",
      "outputs": [
        {
          "internalType": "bool",
          "name": "",
          "type": "bool"
        }
      ],
      "stateMutability": "view",
      "type": "function"
    }
  ],
  "bytecode": "0x60806040523480156200001157600080fd5b5060405162000e5538038062000e558339818101604052810190620000379190620003d4565b81600090805190602001906200004f929190620000fd565b508060038190555060005b8251811015620000f45760008382815181106200007c576200007b6200043a565b5b6020026020010151905060018060008373ffffffffffffffffffffffffffffffffffffffff1673ffffffffffffffffffffffffffffffffffffffff16815260200190815260200160002060006101000a81548160ff021916908315150217905550508080620000eb9062000498565b9150506200005a565b505050620004e6565b82805482825590600052602060002090810192821562000179579160200282015b82811115620001785782518260006101000a81548173ffffffffffffffffffffffffffffffffffffffff021916908373ffffffffffffffffffffffffffffffffffffffff160217905550916020019190600101906200011e565b5b5090506200018891906200018c565b5090565b5b80821115620001a75760008160009055506001016200018d565b5090565b6000604051905090565b600080fd5b600080fd5b600080fd5b6000601f19601f8301169050919050565b7f4e487b7100000000000000000000000000000000000000000000000000000000600052604160045260246000fd5b6200020f82620001c4565b810181811067ffffffffffffffff82111715620002315762000230620001d5565b5b80604052505050565b600062000246620001ab565b905062000254828262000204565b919050565b600067ffffffffffffffff821115620002775762000276620001d5565b5b602082029050602081019050919050565b600080fd5b600073ffffffffffffffffffffffffffffffffffffffff82169050919050565b6000620002ba826200028d565b9050919050565b620002cc81620002ad565b8114620002d857600080fd5b50565b600081519050620002ec81620002c1565b92915050565b600062000309620003038462000259565b6200023a565b905080838252602082019050602084028301858111156200032f576200032e62000288565b5b835b818110156200035c5780620003478882620002db565b84526020840193505060208101905062000331565b5050509392505050565b600082601f8301126200037e576200037d620001bf565b5b815162000390848260208601620002f2565b91505092915050565b6000819050919050565b620003ae8162000399565b8114620003ba57600080fd5b50565b600081519050620003ce81620003a3565b92915050565b60008060408385031215620003ee57620003ed620001b5565b5b600083015167ffffffffffffffff8111156200040f576200040e620001ba565b5b6200041d8582860162000366565b92505060206200043085828601620003bd565b9150509250929050565b7f4e487b7100000000000000000000000000000000000000000000000000000000600052603260045260246000fd5b7f4e487b7100000000000000000000000000000000000000000000000000000000600052601160045260246000fd5b6000620004a58262000399565b91507fffffffffffffffffffffffffffffffffffffffffffffffffffffffffffffffff821415620004db57620004da62000469565b5b600182019050919050565b61095f80620004f66000396000f3fe608060405234801561001057600080fd5b506004361061004c5760003560e01c806315505347146100515780631587efeb14610081578063242232d1146100b15780634b90b7dd146100e1575b600080fd5b61006b60048036038101906100669190610680565b610111565b60405161007891906106cf565b60405180910390f35b61009b600480360381019061009691906106ea565b610326565b6040516100a891906106cf565b60405180910390f35b6100cb60048036038101906100c691906106ea565b610355565b6040516100d891906106cf565b60405180910390f35b6100fb60048036038101906100f691906106ea565b6105ab565b6040516101089190610732565b60405180910390f35b600060011515600160003373ffffffffffffffffffffffffffffffffffffffff1673ffffffffffffffffffffffffffffffffffffffff16815260200190815260200160002060009054906101000a900460ff161515146101a6576040517f08c379a000000000000000000000000000000000000000000000000000000000815260040161019d906107d0565b60405180910390fd5b6000600480549050905060006040518060e001604052808381526020018573ffffffffffffffffffffffffffffffffffffffff1681526020018681526020013373ffffffffffffffffffffffffffffffffffffffff1681526020014281526020016000815260200160001515815250905060048190806001815401808255809150506001900390600052602060002090600702016000909190919091506000820151816000015560208201518160010160006101000a81548173ffffffffffffffffffffffffffffffffffffffff021916908373ffffffffffffffffffffffffffffffffffffffff1602179055506040820151816002015560608201518160030160006101000a81548173ffffffffffffffffffffffffffffffffffffffff021916908373ffffffffffffffffffffffffffffffffffffffff1602179055506080820151816004015560a0820151816005015560c08201518160060160006101000a81548160ff0219169083151502179055505050819250505092915050565b60006004828154811061033c5761033b6107f0565b5b9060005260206000209060070201600501549050919050565b600060011515600160003373ffffffffffffffffffffffffffffffffffffffff1673ffffffffffffffffffffffffffffffffffffffff16815260200190815260200160002060009054906101000a900460ff161515146103ea576040517f08c379a00000000000000000000000000000000000000000000000000000000081526004016103e1906107d0565b60405180910390fd5b600115156002600084815260200190815260200160002060003373ffffffffffffffffffffffffffffffffffffffff1673ffffffffffffffffffffffffffffffffffffffff16815260200190815260200160002060009054906101000a900460ff161515141561048f576040517f08c379a000000000000000000000000000000000000000000000000000000000815260040161048690610891565b60405180910390fd5b6000600483815481106104a5576104a46107f0565b5b9060005260206000209060070201600501600081546104c3906108e0565b9190508190559050600354600484815481106104e2576104e16107f0565b5b9060005260206000209060070201600501541415610539576001600484815481106105105761050f6107f0565b5b906000526020600020906007020160060160006101000a81548160ff0219169083151502179055505b60016002600085815260200190815260200160002060003373ffffffffffffffffffffffffffffffffffffffff1673ffffffffffffffffffffffffffffffffffffffff16815260200190815260200160002060006101000a81548160ff02191690831515021790555080915050919050565b6000600482815481106105c1576105c06107f0565b5b906000526020600020906007020160060160009054906101000a900460ff169050919050565b600080fd5b6000819050919050565b6105ff816105ec565b811461060a57600080fd5b50565b60008135905061061c816105f6565b92915050565b600073ffffffffffffffffffffffffffffffffffffffff82169050919050565b600061064d82610622565b9050919050565b61065d81610642565b811461066857600080fd5b50565b60008135905061067a81610654565b92915050565b60008060408385031215610697576106966105e7565b5b60006106a58582860161060d565b92505060206106b68582860161066b565b9150509250929050565b6106c9816105ec565b82525050565b60006020820190506106e460008301846106c0565b92915050565b600060208284031215610700576106ff6105e7565b5b600061070e8482850161060d565b91505092915050565b60008115159050919050565b61072c81610717565b82525050565b60006020820190506107476000830184610723565b92915050565b600082825260208201905092915050565b7f6f6e6c7920746865206f776e6572732063616e2063616c6c207468697320746860008201527f69732066756e6374696f6e000000000000000000000000000000000000000000602082015250565b60006107ba602b8361074d565b91506107c58261075e565b604082019050919050565b600060208201905081810360008301526107e9816107ad565b9050919050565b7f4e487b7100000000000000000000000000000000000000000000000000000000600052603260045260246000fd5b7f596f7520616c726561647920617070726f7665642074686973207472616e736160008201527f6374696f6e000000000000000000000000000000000000000000000000000000602082015250565b600061087b60258361074d565b91506108868261081f565b604082019050919050565b600060208201905081810360008301526108aa8161086e565b9050919050565b7f4e487b7100000000000000000000000000000000000000000000000000000000600052601160045260246000fd5b60006108eb826105ec565b91507fffffffffffffffffffffffffffffffffffffffffffffffffffffffffffffffff82141561091e5761091d6108b1565b5b60018201905091905056fea26469706673582212207ca8fef9c44ef2718a5c013d49ccc8fcbed5efdf25a334e3722ba9715ae6465064736f6c634300080b0033",
  "immutableReferences": {},
  "source": "// SPDX-License-Identifier: UNLICENSED\r\npragma solidity ^0.8.0;\r\n\r\ncontract MultiSig {\r\n    address[] owners;\r\n    mapping(address => bool) ownersMapping;\r\n    mapping(uint => mapping(address => bool)) votedMapping;\r\n\r\n    uint minimumApprovalRequired;\r\n\r\n    struct TransactionData {\r\n        uint id;\r\n        address toAddress;\r\n        uint256 amount;\r\n        address requestedBy;\r\n        uint256 timeStamp;\r\n        uint numberOfApproval;\r\n        bool status;\r\n    }\r\n\r\n    TransactionData[] transactionsArray;\r\n\r\n    constructor(address[] memory _owners, uint _minimumApprovalRequired) {\r\n        owners = _owners;\r\n        minimumApprovalRequired = _minimumApprovalRequired;\r\n        for(uint i; i < _owners.length; i++) {\r\n            address _owner = _owners[i];\r\n            ownersMapping[_owner] = true;\r\n        }\r\n    }\r\n\r\n    modifier onlyOnwers {\r\n        require(ownersMapping[msg.sender] == true, \"only the owners can call this this function\");\r\n        _;\r\n    }\r\n\r\n\r\n    function requestTransaction(uint _amount, address _to) external onlyOnwers returns(uint) {\r\n        uint _id = transactionsArray.length;\r\n        TransactionData memory transact = TransactionData(_id, _to, _amount, msg.sender, block.timestamp, 0, false);\r\n\r\n        transactionsArray.push(transact);\r\n\r\n        return _id;\r\n    }\r\n\r\n    function approveTransaction(uint _transactionId) external onlyOnwers returns(uint) {\r\n        // transactionsArray[_tansactionId].numberOfApproval + 1;\r\n        require(votedMapping[_transactionId][msg.sender] != true, \"You already approved this transaction\");\r\n        uint _numberOfApproval =  ++transactionsArray[_transactionId].numberOfApproval;\r\n        if(transactionsArray[_transactionId].numberOfApproval == minimumApprovalRequired ){\r\n            transactionsArray[_transactionId].status = true;\r\n        }\r\n        votedMapping[_transactionId][msg.sender] = true;\r\n        return _numberOfApproval;\r\n    }\r\n\r\n    function checkTransactionApproalCount(uint _transactionId) external view returns(uint) {\r\n        return transactionsArray[_transactionId].numberOfApproval;\r\n    }\r\n\r\n    function checkTransactionStatus(uint _transactionId) external view returns(bool){\r\n        return transactionsArray[_transactionId].status;\r\n    }\r\n}\r\n\r\n//[\"0x5B38Da6a701c568545dCfcB03FcB875f56beddC4\", \"0xAb8483F64d9C6d1EcF9b849Ae677dD3315835cb2\"]",
  "sourcePath": "C:\\Users\\hp\\Documents\\blockchain\\web3Bridge\\multiSigWallet\\contracts\\MultiSig.sol",
  "compiler": {
    "name": "solc",
    "version": "0.8.11+commit.d7f03943.Emscripten.clang"
  },
  "schemaVersion": "3.4.4",
  "updatedAt": "2022-02-17T12:28:52.164Z",
  "devdoc": {
    "kind": "dev",
    "methods": {},
    "version": 1
  },
  "userdoc": {
    "kind": "user",
    "methods": {},
    "version": 1
  }
}